{
	"data": {
		"bytecode": {
			"linkReferences": {},
			"object": "608060405234801561001057600080fd5b50610681806100206000396000f3fe608060405234801561001057600080fd5b506004361061002b5760003560e01c8063ca16068414610030575b600080fd5b61004a6004803603810190610045919061043d565b610060565b60405161005791906105fa565b60405180910390f35b610068610209565b816000908051906020019061007e929190610230565b50601660006001815481106100965761009561061c565b5b90600052602060002001819055506000808054806020026020016040519081016040528092919081815260200182805480156100f157602002820191906000526020600020905b8154815260200190600101908083116100dd575b5050505050905060218160018151811061010e5761010d61061c565b5b60200260200101818152505060006037816001815481106101325761013161061c565b5b90600052602060002001819055506040518060800160405280858152602001600080548060200260200160405190810160405280929190818152602001828054801561019d57602002820191906000526020600020905b815481526020019060010190808311610189575b50505050508152602001838152602001828054806020026020016040519081016040528092919081815260200182805480156101f857602002820191906000526020600020905b8154815260200190600101908083116101e4575b505050505081525092505050919050565b60405180608001604052806004905b60608152602001906001900390816102185790505090565b82805482825590600052602060002090810192821561026c579160200282015b8281111561026b578251825591602001919060010190610250565b5b509050610279919061027d565b5090565b5b8082111561029657600081600090555060010161027e565b5090565b6000604051905090565b600080fd5b600080fd5b600080fd5b6000601f19601f8301169050919050565b7f4e487b7100000000000000000000000000000000000000000000000000000000600052604160045260246000fd5b6102fc826102b3565b810181811067ffffffffffffffff8211171561031b5761031a6102c4565b5b80604052505050565b600061032e61029a565b905061033a82826102f3565b919050565b600067ffffffffffffffff82111561035a576103596102c4565b5b602082029050602081019050919050565b600080fd5b6000819050919050565b61038381610370565b811461038e57600080fd5b50565b6000813590506103a08161037a565b92915050565b60006103b96103b48461033f565b610324565b905080838252602082019050602084028301858111156103dc576103db61036b565b5b835b8181101561040557806103f18882610391565b8452602084019350506020810190506103de565b5050509392505050565b600082601f830112610424576104236102ae565b5b81356104348482602086016103a6565b91505092915050565b600060208284031215610453576104526102a4565b5b600082013567ffffffffffffffff811115610471576104706102a9565b5b61047d8482850161040f565b91505092915050565b600060049050919050565b600081905092915050565b6000819050919050565b600081519050919050565b600082825260208201905092915050565b6000819050602082019050919050565b6104db81610370565b82525050565b60006104ed83836104d2565b60208301905092915050565b6000602082019050919050565b6000610511826104a6565b61051b81856104b1565b9350610526836104c2565b8060005b8381101561055757815161053e88826104e1565b9750610549836104f9565b92505060018101905061052a565b5085935050505092915050565b60006105708383610506565b905092915050565b6000602082019050919050565b600061059082610486565b61059a8185610491565b9350836020820285016105ac8561049c565b8060005b858110156105e857848403895281516105c98582610564565b94506105d483610578565b925060208a019950506001810190506105b0565b50829750879550505050505092915050565b600060208201905081810360008301526106148184610585565b905092915050565b7f4e487b7100000000000000000000000000000000000000000000000000000000600052603260045260246000fdfea26469706673582212206c3b70c5dcc08c566270dbf65d2f3e995dbf5b8776f78e5c45c81c07a2e6e30764736f6c634300080d0033",
			"opcodes": "PUSH1 0x80 PUSH1 0x40 MSTORE CALLVALUE DUP1 ISZERO PUSH2 0x10 JUMPI PUSH1 0x0 DUP1 REVERT JUMPDEST POP PUSH2 0x681 DUP1 PUSH2 0x20 PUSH1 0x0 CODECOPY PUSH1 0x0 RETURN INVALID PUSH1 0x80 PUSH1 0x40 MSTORE CALLVALUE DUP1 ISZERO PUSH2 0x10 JUMPI PUSH1 0x0 DUP1 REVERT JUMPDEST POP PUSH1 0x4 CALLDATASIZE LT PUSH2 0x2B JUMPI PUSH1 0x0 CALLDATALOAD PUSH1 0xE0 SHR DUP1 PUSH4 0xCA160684 EQ PUSH2 0x30 JUMPI JUMPDEST PUSH1 0x0 DUP1 REVERT JUMPDEST PUSH2 0x4A PUSH1 0x4 DUP1 CALLDATASIZE SUB DUP2 ADD SWAP1 PUSH2 0x45 SWAP2 SWAP1 PUSH2 0x43D JUMP JUMPDEST PUSH2 0x60 JUMP JUMPDEST PUSH1 0x40 MLOAD PUSH2 0x57 SWAP2 SWAP1 PUSH2 0x5FA JUMP JUMPDEST PUSH1 0x40 MLOAD DUP1 SWAP2 SUB SWAP1 RETURN JUMPDEST PUSH2 0x68 PUSH2 0x209 JUMP JUMPDEST DUP2 PUSH1 0x0 SWAP1 DUP1 MLOAD SWAP1 PUSH1 0x20 ADD SWAP1 PUSH2 0x7E SWAP3 SWAP2 SWAP1 PUSH2 0x230 JUMP JUMPDEST POP PUSH1 0x16 PUSH1 0x0 PUSH1 0x1 DUP2 SLOAD DUP2 LT PUSH2 0x96 JUMPI PUSH2 0x95 PUSH2 0x61C JUMP JUMPDEST JUMPDEST SWAP1 PUSH1 0x0 MSTORE PUSH1 0x20 PUSH1 0x0 KECCAK256 ADD DUP2 SWAP1 SSTORE POP PUSH1 0x0 DUP1 DUP1 SLOAD DUP1 PUSH1 0x20 MUL PUSH1 0x20 ADD PUSH1 0x40 MLOAD SWAP1 DUP2 ADD PUSH1 0x40 MSTORE DUP1 SWAP3 SWAP2 SWAP1 DUP2 DUP2 MSTORE PUSH1 0x20 ADD DUP3 DUP1 SLOAD DUP1 ISZERO PUSH2 0xF1 JUMPI PUSH1 0x20 MUL DUP3 ADD SWAP2 SWAP1 PUSH1 0x0 MSTORE PUSH1 0x20 PUSH1 0x0 KECCAK256 SWAP1 JUMPDEST DUP2 SLOAD DUP2 MSTORE PUSH1 0x20 ADD SWAP1 PUSH1 0x1 ADD SWAP1 DUP1 DUP4 GT PUSH2 0xDD JUMPI JUMPDEST POP POP POP POP POP SWAP1 POP PUSH1 0x21 DUP2 PUSH1 0x1 DUP2 MLOAD DUP2 LT PUSH2 0x10E JUMPI PUSH2 0x10D PUSH2 0x61C JUMP JUMPDEST JUMPDEST PUSH1 0x20 MUL PUSH1 0x20 ADD ADD DUP2 DUP2 MSTORE POP POP PUSH1 0x0 PUSH1 0x37 DUP2 PUSH1 0x1 DUP2 SLOAD DUP2 LT PUSH2 0x132 JUMPI PUSH2 0x131 PUSH2 0x61C JUMP JUMPDEST JUMPDEST SWAP1 PUSH1 0x0 MSTORE PUSH1 0x20 PUSH1 0x0 KECCAK256 ADD DUP2 SWAP1 SSTORE POP PUSH1 0x40 MLOAD DUP1 PUSH1 0x80 ADD PUSH1 0x40 MSTORE DUP1 DUP6 DUP2 MSTORE PUSH1 0x20 ADD PUSH1 0x0 DUP1 SLOAD DUP1 PUSH1 0x20 MUL PUSH1 0x20 ADD PUSH1 0x40 MLOAD SWAP1 DUP2 ADD PUSH1 0x40 MSTORE DUP1 SWAP3 SWAP2 SWAP1 DUP2 DUP2 MSTORE PUSH1 0x20 ADD DUP3 DUP1 SLOAD DUP1 ISZERO PUSH2 0x19D JUMPI PUSH1 0x20 MUL DUP3 ADD SWAP2 SWAP1 PUSH1 0x0 MSTORE PUSH1 0x20 PUSH1 0x0 KECCAK256 SWAP1 JUMPDEST DUP2 SLOAD DUP2 MSTORE PUSH1 0x20 ADD SWAP1 PUSH1 0x1 ADD SWAP1 DUP1 DUP4 GT PUSH2 0x189 JUMPI JUMPDEST POP POP POP POP POP DUP2 MSTORE PUSH1 0x20 ADD DUP4 DUP2 MSTORE PUSH1 0x20 ADD DUP3 DUP1 SLOAD DUP1 PUSH1 0x20 MUL PUSH1 0x20 ADD PUSH1 0x40 MLOAD SWAP1 DUP2 ADD PUSH1 0x40 MSTORE DUP1 SWAP3 SWAP2 SWAP1 DUP2 DUP2 MSTORE PUSH1 0x20 ADD DUP3 DUP1 SLOAD DUP1 ISZERO PUSH2 0x1F8 JUMPI PUSH1 0x20 MUL DUP3 ADD SWAP2 SWAP1 PUSH1 0x0 MSTORE PUSH1 0x20 PUSH1 0x0 KECCAK256 SWAP1 JUMPDEST DUP2 SLOAD DUP2 MSTORE PUSH1 0x20 ADD SWAP1 PUSH1 0x1 ADD SWAP1 DUP1 DUP4 GT PUSH2 0x1E4 JUMPI JUMPDEST POP POP POP POP POP DUP2 MSTORE POP SWAP3 POP POP POP SWAP2 SWAP1 POP JUMP JUMPDEST PUSH1 0x40 MLOAD DUP1 PUSH1 0x80 ADD PUSH1 0x40 MSTORE DUP1 PUSH1 0x4 SWAP1 JUMPDEST PUSH1 0x60 DUP2 MSTORE PUSH1 0x20 ADD SWAP1 PUSH1 0x1 SWAP1 SUB SWAP1 DUP2 PUSH2 0x218 JUMPI SWAP1 POP POP SWAP1 JUMP JUMPDEST DUP3 DUP1 SLOAD DUP3 DUP3 SSTORE SWAP1 PUSH1 0x0 MSTORE PUSH1 0x20 PUSH1 0x0 KECCAK256 SWAP1 DUP2 ADD SWAP3 DUP3 ISZERO PUSH2 0x26C JUMPI SWAP2 PUSH1 0x20 MUL DUP3 ADD JUMPDEST DUP3 DUP2 GT ISZERO PUSH2 0x26B JUMPI DUP3 MLOAD DUP3 SSTORE SWAP2 PUSH1 0x20 ADD SWAP2 SWAP1 PUSH1 0x1 ADD SWAP1 PUSH2 0x250 JUMP JUMPDEST JUMPDEST POP SWAP1 POP PUSH2 0x279 SWAP2 SWAP1 PUSH2 0x27D JUMP JUMPDEST POP SWAP1 JUMP JUMPDEST JUMPDEST DUP1 DUP3 GT ISZERO PUSH2 0x296 JUMPI PUSH1 0x0 DUP2 PUSH1 0x0 SWAP1 SSTORE POP PUSH1 0x1 ADD PUSH2 0x27E JUMP JUMPDEST POP SWAP1 JUMP JUMPDEST PUSH1 0x0 PUSH1 0x40 MLOAD SWAP1 POP SWAP1 JUMP JUMPDEST PUSH1 0x0 DUP1 REVERT JUMPDEST PUSH1 0x0 DUP1 REVERT JUMPDEST PUSH1 0x0 DUP1 REVERT JUMPDEST PUSH1 0x0 PUSH1 0x1F NOT PUSH1 0x1F DUP4 ADD AND SWAP1 POP SWAP2 SWAP1 POP JUMP JUMPDEST PUSH32 0x4E487B7100000000000000000000000000000000000000000000000000000000 PUSH1 0x0 MSTORE PUSH1 0x41 PUSH1 0x4 MSTORE PUSH1 0x24 PUSH1 0x0 REVERT JUMPDEST PUSH2 0x2FC DUP3 PUSH2 0x2B3 JUMP JUMPDEST DUP2 ADD DUP2 DUP2 LT PUSH8 0xFFFFFFFFFFFFFFFF DUP3 GT OR ISZERO PUSH2 0x31B JUMPI PUSH2 0x31A PUSH2 0x2C4 JUMP JUMPDEST JUMPDEST DUP1 PUSH1 0x40 MSTORE POP POP POP JUMP JUMPDEST PUSH1 0x0 PUSH2 0x32E PUSH2 0x29A JUMP JUMPDEST SWAP1 POP PUSH2 0x33A DUP3 DUP3 PUSH2 0x2F3 JUMP JUMPDEST SWAP2 SWAP1 POP JUMP JUMPDEST PUSH1 0x0 PUSH8 0xFFFFFFFFFFFFFFFF DUP3 GT ISZERO PUSH2 0x35A JUMPI PUSH2 0x359 PUSH2 0x2C4 JUMP JUMPDEST JUMPDEST PUSH1 0x20 DUP3 MUL SWAP1 POP PUSH1 0x20 DUP2 ADD SWAP1 POP SWAP2 SWAP1 POP JUMP JUMPDEST PUSH1 0x0 DUP1 REVERT JUMPDEST PUSH1 0x0 DUP2 SWAP1 POP SWAP2 SWAP1 POP JUMP JUMPDEST PUSH2 0x383 DUP2 PUSH2 0x370 JUMP JUMPDEST DUP2 EQ PUSH2 0x38E JUMPI PUSH1 0x0 DUP1 REVERT JUMPDEST POP JUMP JUMPDEST PUSH1 0x0 DUP2 CALLDATALOAD SWAP1 POP PUSH2 0x3A0 DUP2 PUSH2 0x37A JUMP JUMPDEST SWAP3 SWAP2 POP POP JUMP JUMPDEST PUSH1 0x0 PUSH2 0x3B9 PUSH2 0x3B4 DUP5 PUSH2 0x33F JUMP JUMPDEST PUSH2 0x324 JUMP JUMPDEST SWAP1 POP DUP1 DUP4 DUP3 MSTORE PUSH1 0x20 DUP3 ADD SWAP1 POP PUSH1 0x20 DUP5 MUL DUP4 ADD DUP6 DUP2 GT ISZERO PUSH2 0x3DC JUMPI PUSH2 0x3DB PUSH2 0x36B JUMP JUMPDEST JUMPDEST DUP4 JUMPDEST DUP2 DUP2 LT ISZERO PUSH2 0x405 JUMPI DUP1 PUSH2 0x3F1 DUP9 DUP3 PUSH2 0x391 JUMP JUMPDEST DUP5 MSTORE PUSH1 0x20 DUP5 ADD SWAP4 POP POP PUSH1 0x20 DUP2 ADD SWAP1 POP PUSH2 0x3DE JUMP JUMPDEST POP POP POP SWAP4 SWAP3 POP POP POP JUMP JUMPDEST PUSH1 0x0 DUP3 PUSH1 0x1F DUP4 ADD SLT PUSH2 0x424 JUMPI PUSH2 0x423 PUSH2 0x2AE JUMP JUMPDEST JUMPDEST DUP2 CALLDATALOAD PUSH2 0x434 DUP5 DUP3 PUSH1 0x20 DUP7 ADD PUSH2 0x3A6 JUMP JUMPDEST SWAP2 POP POP SWAP3 SWAP2 POP POP JUMP JUMPDEST PUSH1 0x0 PUSH1 0x20 DUP3 DUP5 SUB SLT ISZERO PUSH2 0x453 JUMPI PUSH2 0x452 PUSH2 0x2A4 JUMP JUMPDEST JUMPDEST PUSH1 0x0 DUP3 ADD CALLDATALOAD PUSH8 0xFFFFFFFFFFFFFFFF DUP2 GT ISZERO PUSH2 0x471 JUMPI PUSH2 0x470 PUSH2 0x2A9 JUMP JUMPDEST JUMPDEST PUSH2 0x47D DUP5 DUP3 DUP6 ADD PUSH2 0x40F JUMP JUMPDEST SWAP2 POP POP SWAP3 SWAP2 POP POP JUMP JUMPDEST PUSH1 0x0 PUSH1 0x4 SWAP1 POP SWAP2 SWAP1 POP JUMP JUMPDEST PUSH1 0x0 DUP2 SWAP1 POP SWAP3 SWAP2 POP POP JUMP JUMPDEST PUSH1 0x0 DUP2 SWAP1 POP SWAP2 SWAP1 POP JUMP JUMPDEST PUSH1 0x0 DUP2 MLOAD SWAP1 POP SWAP2 SWAP1 POP JUMP JUMPDEST PUSH1 0x0 DUP3 DUP3 MSTORE PUSH1 0x20 DUP3 ADD SWAP1 POP SWAP3 SWAP2 POP POP JUMP JUMPDEST PUSH1 0x0 DUP2 SWAP1 POP PUSH1 0x20 DUP3 ADD SWAP1 POP SWAP2 SWAP1 POP JUMP JUMPDEST PUSH2 0x4DB DUP2 PUSH2 0x370 JUMP JUMPDEST DUP3 MSTORE POP POP JUMP JUMPDEST PUSH1 0x0 PUSH2 0x4ED DUP4 DUP4 PUSH2 0x4D2 JUMP JUMPDEST PUSH1 0x20 DUP4 ADD SWAP1 POP SWAP3 SWAP2 POP POP JUMP JUMPDEST PUSH1 0x0 PUSH1 0x20 DUP3 ADD SWAP1 POP SWAP2 SWAP1 POP JUMP JUMPDEST PUSH1 0x0 PUSH2 0x511 DUP3 PUSH2 0x4A6 JUMP JUMPDEST PUSH2 0x51B DUP2 DUP6 PUSH2 0x4B1 JUMP JUMPDEST SWAP4 POP PUSH2 0x526 DUP4 PUSH2 0x4C2 JUMP JUMPDEST DUP1 PUSH1 0x0 JUMPDEST DUP4 DUP2 LT ISZERO PUSH2 0x557 JUMPI DUP2 MLOAD PUSH2 0x53E DUP9 DUP3 PUSH2 0x4E1 JUMP JUMPDEST SWAP8 POP PUSH2 0x549 DUP4 PUSH2 0x4F9 JUMP JUMPDEST SWAP3 POP POP PUSH1 0x1 DUP2 ADD SWAP1 POP PUSH2 0x52A JUMP JUMPDEST POP DUP6 SWAP4 POP POP POP POP SWAP3 SWAP2 POP POP JUMP JUMPDEST PUSH1 0x0 PUSH2 0x570 DUP4 DUP4 PUSH2 0x506 JUMP JUMPDEST SWAP1 POP SWAP3 SWAP2 POP POP JUMP JUMPDEST PUSH1 0x0 PUSH1 0x20 DUP3 ADD SWAP1 POP SWAP2 SWAP1 POP JUMP JUMPDEST PUSH1 0x0 PUSH2 0x590 DUP3 PUSH2 0x486 JUMP JUMPDEST PUSH2 0x59A DUP2 DUP6 PUSH2 0x491 JUMP JUMPDEST SWAP4 POP DUP4 PUSH1 0x20 DUP3 MUL DUP6 ADD PUSH2 0x5AC DUP6 PUSH2 0x49C JUMP JUMPDEST DUP1 PUSH1 0x0 JUMPDEST DUP6 DUP2 LT ISZERO PUSH2 0x5E8 JUMPI DUP5 DUP5 SUB DUP10 MSTORE DUP2 MLOAD PUSH2 0x5C9 DUP6 DUP3 PUSH2 0x564 JUMP JUMPDEST SWAP5 POP PUSH2 0x5D4 DUP4 PUSH2 0x578 JUMP JUMPDEST SWAP3 POP PUSH1 0x20 DUP11 ADD SWAP10 POP POP PUSH1 0x1 DUP2 ADD SWAP1 POP PUSH2 0x5B0 JUMP JUMPDEST POP DUP3 SWAP8 POP DUP8 SWAP6 POP POP POP POP POP POP SWAP3 SWAP2 POP POP JUMP JUMPDEST PUSH1 0x0 PUSH1 0x20 DUP3 ADD SWAP1 POP DUP2 DUP2 SUB PUSH1 0x0 DUP4 ADD MSTORE PUSH2 0x614 DUP2 DUP5 PUSH2 0x585 JUMP JUMPDEST SWAP1 POP SWAP3 SWAP2 POP POP JUMP JUMPDEST PUSH32 0x4E487B7100000000000000000000000000000000000000000000000000000000 PUSH1 0x0 MSTORE PUSH1 0x32 PUSH1 0x4 MSTORE PUSH1 0x24 PUSH1 0x0 REVERT INVALID LOG2 PUSH5 0x6970667358 0x22 SLT KECCAK256 PUSH13 0x3B70C5DCC08C566270DBF65D2F RETURNDATACOPY SWAP10 0x5D 0xBF JUMPDEST DUP8 PUSH23 0xF78E5C45C81C07A2E6E30764736F6C634300080D003300 "
		},
		"gasEstimates": {
			"creation": {
				"codeDepositCost": "333000",
				"executionCost": "374",
				"totalCost": "333374"
			},
			"external": {
				"test(uint256[])": "infinite"
			},
			"internal": {
				"test2()": "infinite",
				"testPopPush()": "infinite"
			}
		},
		"methodIdentifiers": {
			"test(uint256[])": "ca160684"
		}
	},
	"abi": [
		{
			"inputs": [
				{
					"internalType": "uint256[]",
					"name": "memoryArray",
					"type": "uint256[]"
				}
			],
			"name": "test",
			"outputs": [
				{
					"internalType": "uint256[][4]",
					"name": "",
					"type": "uint256[][4]"
				}
			],
			"stateMutability": "nonpayable",
			"type": "function"
		}
	]
}